{"abi":[{"type":"constructor","inputs":[{"name":"initialOwner","type":"address","internalType":"address"}],"stateMutability":"nonpayable"},{"type":"function","name":"ACTIVATE_DEVICE_TYPEHASH","inputs":[],"outputs":[{"name":"","type":"bytes32","internalType":"bytes32"}],"stateMutability":"view"},{"type":"function","name":"activateDevice","inputs":[{"name":"args","type":"tuple","internalType":"struct ProductFactory.ActivateDeviceArgs","components":[{"name":"product","type":"address","internalType":"address"},{"name":"device","type":"address","internalType":"address"},{"name":"deviceSignature","type":"bytes","internalType":"bytes"},{"name":"deviceDeadline","type":"uint256","internalType":"uint256"}]},{"name":"signature","type":"tuple","internalType":"struct ProductFactory.EIP712Signature","components":[{"name":"signer","type":"address","internalType":"address"},{"name":"v","type":"uint8","internalType":"uint8"},{"name":"r","type":"bytes32","internalType":"bytes32"},{"name":"s","type":"bytes32","internalType":"bytes32"},{"name":"deadline","type":"uint256","internalType":"uint256"}]}],"outputs":[],"stateMutability":"nonpayable"},{"type":"function","name":"createActivatedDevices","inputs":[{"name":"args","type":"tuple","internalType":"struct ProductFactory.CreateActivatedDevicesArgs","components":[{"name":"product","type":"address","internalType":"address"},{"name":"devices","type":"address[]","internalType":"address[]"},{"name":"receivers","type":"address[]","internalType":"address[]"}]}],"outputs":[],"stateMutability":"nonpayable"},{"type":"function","name":"createDevices","inputs":[{"name":"args","type":"tuple","internalType":"struct ProductFactory.CreateDevicesArgs","components":[{"name":"product","type":"address","internalType":"address"},{"name":"devices","type":"address[]","internalType":"address[]"}]}],"outputs":[],"stateMutability":"nonpayable"},{"type":"function","name":"createProduct","inputs":[{"name":"args","type":"tuple","internalType":"struct ProductFactory.CreateProductArgs","components":[{"name":"productImpl","type":"address","internalType":"address"},{"name":"name","type":"string","internalType":"string"},{"name":"symbol","type":"string","internalType":"string"},{"name":"baseTokenURI","type":"string","internalType":"string"}]}],"outputs":[{"name":"","type":"address","internalType":"address"}],"stateMutability":"nonpayable"},{"type":"function","name":"eip712Domain","inputs":[],"outputs":[{"name":"fields","type":"bytes1","internalType":"bytes1"},{"name":"name","type":"string","internalType":"string"},{"name":"version","type":"string","internalType":"string"},{"name":"chainId","type":"uint256","internalType":"uint256"},{"name":"verifyingContract","type":"address","internalType":"address"},{"name":"salt","type":"bytes32","internalType":"bytes32"},{"name":"extensions","type":"uint256[]","internalType":"uint256[]"}],"stateMutability":"view"},{"type":"function","name":"getDeviceTokenId","inputs":[{"name":"product","type":"address","internalType":"address"},{"name":"device","type":"address","internalType":"address"}],"outputs":[{"name":"","type":"uint256","internalType":"uint256"}],"stateMutability":"view"},{"type":"function","name":"getDomainSeparator","inputs":[],"outputs":[{"name":"","type":"bytes32","internalType":"bytes32"}],"stateMutability":"view"},{"type":"function","name":"getVendorByProduct","inputs":[{"name":"product","type":"address","internalType":"address"}],"outputs":[{"name":"","type":"address","internalType":"address"}],"stateMutability":"view"},{"type":"function","name":"owner","inputs":[],"outputs":[{"name":"","type":"address","internalType":"address"}],"stateMutability":"view"},{"type":"function","name":"renounceOwnership","inputs":[],"outputs":[],"stateMutability":"nonpayable"},{"type":"function","name":"transferOwnership","inputs":[{"name":"newOwner","type":"address","internalType":"address"}],"outputs":[],"stateMutability":"nonpayable"},{"type":"event","name":"DeviceActivated","inputs":[{"name":"product","type":"address","indexed":true,"internalType":"address"},{"name":"device","type":"address","indexed":true,"internalType":"address"}],"anonymous":false},{"type":"event","name":"DeviceCreated","inputs":[{"name":"product","type":"address","indexed":true,"internalType":"address"},{"name":"device","type":"address","indexed":true,"internalType":"address"},{"name":"tokenId","type":"uint256","indexed":true,"internalType":"uint256"}],"anonymous":false},{"type":"event","name":"EIP712DomainChanged","inputs":[],"anonymous":false},{"type":"event","name":"OwnershipTransferred","inputs":[{"name":"previousOwner","type":"address","indexed":true,"internalType":"address"},{"name":"newOwner","type":"address","indexed":true,"internalType":"address"}],"anonymous":false},{"type":"event","name":"ProductCreated","inputs":[{"name":"vendor","type":"address","indexed":true,"internalType":"address"},{"name":"productImpl","type":"address","indexed":true,"internalType":"address"},{"name":"product","type":"address","indexed":true,"internalType":"address"}],"anonymous":false},{"type":"error","name":"DeviceAlreadyCreated","inputs":[]},{"type":"error","name":"DeviceSignatureExpired","inputs":[]},{"type":"error","name":"DeviceSignatureMismatch","inputs":[]},{"type":"error","name":"ECDSAInvalidSignature","inputs":[]},{"type":"error","name":"ECDSAInvalidSignatureLength","inputs":[{"name":"length","type":"uint256","internalType":"uint256"}]},{"type":"error","name":"ECDSAInvalidSignatureS","inputs":[{"name":"s","type":"bytes32","internalType":"bytes32"}]},{"type":"error","name":"EIP712SignatureExpired","inputs":[]},{"type":"error","name":"EIP712SignatureMismatch","inputs":[]},{"type":"error","name":"ERC1167FailedCreateClone","inputs":[]},{"type":"error","name":"InvalidShortString","inputs":[]},{"type":"error","name":"NotProductTemplate","inputs":[]},{"type":"error","name":"NotVendor","inputs":[]},{"type":"error","name":"OwnableInvalidOwner","inputs":[{"name":"owner","type":"address","internalType":"address"}]},{"type":"error","name":"OwnableUnauthorizedAccount","inputs":[{"name":"account","type":"address","internalType":"address"}]},{"type":"error","name":"StringTooLong","inputs":[{"name":"str","type":"string","internalType":"string"}]},{"type":"error","name":"TokenIdMismatch","inputs":[]}],"bytecode":{"object":"0x61016060405234801561001157600080fd5b50604051611e2d380380611e2d8339810160408190526100309161021f565b604080518082018252600e81526d50726f64756374466163746f727960901b602080830191909152825180840190935260018352603160f81b9083015290826001600160a01b03811661009e57604051631e4fbdf760e01b8152600060048201526024015b60405180910390fd5b6100a78161015e565b506100b38260016101ae565b610120526100c28160026101ae565b61014052815160208084019190912060e052815190820120610100524660a05261014f60e05161010051604080517f8b73c3c69bb8fe3d512ecc4cf759cc79239f7b179b0ffacaa9a75d522b39400f60208201529081019290925260608201524660808201523060a082015260009060c00160405160208183030381529060405280519060200120905090565b60805250503060c0525061041e565b600080546001600160a01b038381166001600160a01b0319831681178455604051919092169283917f8be0079c531659141344cd1fd0a4f28419497f9722a3daafe3b4186f6b6457e09190a35050565b60006020835110156101ca576101c3836101e1565b90506101db565b816101d584826102ee565b5060ff90505b92915050565b600080829050601f8151111561020c578260405163305a27a960e01b815260040161009591906103ac565b8051610217826103fa565b179392505050565b60006020828403121561023157600080fd5b81516001600160a01b038116811461024857600080fd5b9392505050565b634e487b7160e01b600052604160045260246000fd5b600181811c9082168061027957607f821691505b60208210810361029957634e487b7160e01b600052602260045260246000fd5b50919050565b601f8211156102e957806000526020600020601f840160051c810160208510156102c65750805b601f840160051c820191505b818110156102e657600081556001016102d2565b50505b505050565b81516001600160401b038111156103075761030761024f565b61031b816103158454610265565b8461029f565b6020601f82116001811461034f57600083156103375750848201515b600019600385901b1c1916600184901b1784556102e6565b600084815260208120601f198516915b8281101561037f578785015182556020948501946001909201910161035f565b508482101561039d5786840151600019600387901b60f8161c191681555b50505050600190811b01905550565b602081526000825180602084015260005b818110156103da57602081860181015160408684010152016103bd565b506000604082850101526040601f19601f83011684010191505092915050565b805160208083015191908110156102995760001960209190910360031b1b16919050565b60805160a05160c05160e0516101005161012051610140516119b56104786000396000610c8601526000610c5901526000610e8001526000610e5801526000610db301526000610ddd01526000610e0701526119b56000f3fe608060405234801561001057600080fd5b50600436106100b35760003560e01c80638da5cb5b116100715780638da5cb5b14610154578063904b55a514610165578063b063cb5414610191578063bb189de114610199578063ed24911d146101ac578063f2fde38b146101b457600080fd5b80622ca198146100b85780633a7eece8146100e85780634be60db3146100fd5780635d25e63214610110578063715018a61461013157806384b0196e14610139575b600080fd5b6100cb6100c636600461130f565b6101c7565b6040516001600160a01b0390911681526020015b60405180910390f35b6100fb6100f636600461146e565b610339565b005b6100fb61010b36600461150b565b61054f565b61012361011e3660046115b6565b6107f4565b6040519081526020016100df565b6100fb610821565b610141610835565b6040516100df979695949392919061162f565b6000546001600160a01b03166100cb565b6100cb6101733660046116c7565b6001600160a01b039081166000908152600360205260409020541690565b61012361087b565b6100fb6101a7366004611765565b61089e565b610123610b11565b6100fb6101c23660046116c7565b610b20565b80516040516301ffc9a760e01b815263360ff5e360e01b60048201526000916001600160a01b0316906301ffc9a790602401602060405180830381865afa158015610216573d6000803e3d6000fd5b505050506040513d601f19601f8201168201806040525081019061023a919061181f565b61025757604051630fb9181b60e11b815260040160405180910390fd5b60006102668360000151610b63565b9050806001600160a01b0316635c6d8da1846020015185604001518660600151306040518563ffffffff1660e01b81526004016102a69493929190611841565b600060405180830381600087803b1580156102c057600080fd5b505af11580156102d4573d6000803e3d6000fd5b5050506001600160a01b0380831660008181526003602052604080822080546001600160a01b0319163390811790915588519151939550931692917f0d516d8b14b989f8763b7f1b93e8e08f0f5ff06e0b833b8d080f0f1f33f9f3029190a492915050565b80516001600160a01b0380821660009081526003602052604090205416331461037557604051630143454560e01b815260040160405180910390fd5b60005b82602001515181101561054a5782516001600160a01b031660009081526004602090815260408220908501518051839190859081106103b9576103b9611894565b60200260200101516001600160a01b03166001600160a01b03168152602001908152602001600020541115610401576040516353eadbf760e11b815260040160405180910390fd5b82516040516335313c2160e11b81523060048201526000916001600160a01b031690636a627842906024016020604051808303816000875af115801561044b573d6000803e3d6000fd5b505050506040513d601f19601f8201168201806040525081019061046f91906118aa565b9050806004600086600001516001600160a01b03166001600160a01b031681526020019081526020016000206000866020015185815181106104b3576104b3611894565b60200260200101516001600160a01b03166001600160a01b031681526020019081526020016000208190555080846020015183815181106104f6576104f6611894565b60200260200101516001600160a01b031685600001516001600160a01b03167f9f8ee02843e6d9d43d51ce2e6063a09267f22193680a24600bf13e4efca5d0c760405160405180910390a450600101610378565b505050565b80516001600160a01b0380821660009081526003602052604090205416331461058b57604051630143454560e01b815260040160405180910390fd5b60005b82602001515181101561054a5782516001600160a01b031660009081526004602090815260408220908501518051839190859081106105cf576105cf611894565b60200260200101516001600160a01b03166001600160a01b03168152602001908152602001600020541115610617576040516353eadbf760e11b815260040160405180910390fd5b600083600001516001600160a01b0316636a6278428560400151848151811061064257610642611894565b60200260200101516040518263ffffffff1660e01b815260040161067591906001600160a01b0391909116815260200190565b6020604051808303816000875af1158015610694573d6000803e3d6000fd5b505050506040513d601f19601f820116820180604052508101906106b891906118aa565b9050806004600086600001516001600160a01b03166001600160a01b031681526020019081526020016000206000866020015185815181106106fc576106fc611894565b60200260200101516001600160a01b03166001600160a01b0316815260200190815260200160002081905550808460200151838151811061073f5761073f611894565b60200260200101516001600160a01b031685600001516001600160a01b03167f9f8ee02843e6d9d43d51ce2e6063a09267f22193680a24600bf13e4efca5d0c760405160405180910390a4836040015182815181106107a0576107a0611894565b60200260200101516001600160a01b031684600001516001600160a01b03167ff297737e991455288ddb7481b53c270d8821275ddfdf4e82af900234f8e2925960405160405180910390a35060010161058e565b6001600160a01b038083166000908152600460209081526040808320938516835292905220545b92915050565b610829610bd5565b6108336000610c02565b565b600060608060008060006060610849610c52565b610851610c7f565b60408051600080825260208201909252600f60f81b9b939a50919850469750309650945092509050565b6040518060a00160405280606c8152602001611914606c91398051906020012081565b600061094361093d6040518060a00160405280606c8152602001611914606c913980516020918201208651878301516040808a015180519086012060608b015160808b015192516109229792939192019586526001600160a01b0394851660208701529290931660408501526060840152608083019190915260a082015260c00190565b60405160208183030381529060405280519060200120610cac565b83610cd9565b9050806001600160a01b031682600001516001600160a01b03161461097b5760405163680a7f5760e11b815260040160405180910390fd5b6000610a096109fa856060015160405160200161099a91815260200190565b60408051601f1981840301815282825280516020918201207f44455048595f49445f5349474e45445f4d4553534147453a000000000000000084830152603880850191909152825180850390910181526058909301909152815191012090565b85604001518660600151610d71565b9050806001600160a01b031684602001516001600160a01b031614610a4157604051639918f91160e01b815260040160405180910390fd5b83516001600160a01b039081166000818152600460208181526040808420828b015187168552909152918290205491516323b872dd60e01b8152309181019190915292851660248401526044830152906323b872dd90606401600060405180830381600087803b158015610ab457600080fd5b505af1158015610ac8573d6000803e3d6000fd5b505050602085015185516040516001600160a01b0392831693509116907ff297737e991455288ddb7481b53c270d8821275ddfdf4e82af900234f8e2925990600090a350505050565b6000610b1b610da6565b905090565b610b28610bd5565b6001600160a01b038116610b5757604051631e4fbdf760e01b8152600060048201526024015b60405180910390fd5b610b6081610c02565b50565b6000763d602d80600a3d3981f3363d3d373d3d3d363d730000008260601b60e81c176000526e5af43d82803e903d91602b57fd5bf38260781b17602052603760096000f090506001600160a01b038116610bd0576040516330be1a3d60e21b815260040160405180910390fd5b919050565b6000546001600160a01b031633146108335760405163118cdaa760e01b8152336004820152602401610b4e565b600080546001600160a01b038381166001600160a01b0319831681178455604051919092169283917f8be0079c531659141344cd1fd0a4f28419497f9722a3daafe3b4186f6b6457e09190a35050565b6060610b1b7f00000000000000000000000000000000000000000000000000000000000000006001610ed1565b6060610b1b7f00000000000000000000000000000000000000000000000000000000000000006002610ed1565b600061081b610cb9610da6565b8360405161190160f01b8152600281019290925260228201526042902090565b60004282608001511015610d005760405163f6d5e7cb60e01b815260040160405180910390fd5b602080830151604080850151606080870151835160008082529681018086528a905260ff90951693850193909352830152608082015260019060a0016020604051602081039080840390855afa158015610d5e573d6000803e3d6000fd5b5050604051601f19015195945050505050565b600042821015610d9457604051636932286960e11b815260040160405180910390fd5b610d9e8484610f7c565b949350505050565b6000306001600160a01b037f000000000000000000000000000000000000000000000000000000000000000016148015610dff57507f000000000000000000000000000000000000000000000000000000000000000046145b15610e2957507f000000000000000000000000000000000000000000000000000000000000000090565b610b1b604080517f8b73c3c69bb8fe3d512ecc4cf759cc79239f7b179b0ffacaa9a75d522b39400f60208201527f0000000000000000000000000000000000000000000000000000000000000000918101919091527f000000000000000000000000000000000000000000000000000000000000000060608201524660808201523060a082015260009060c00160405160208183030381529060405280519060200120905090565b606060ff8314610eeb57610ee483610fa6565b905061081b565b818054610ef7906118c3565b80601f0160208091040260200160405190810160405280929190818152602001828054610f23906118c3565b8015610f705780601f10610f4557610100808354040283529160200191610f70565b820191906000526020600020905b815481529060010190602001808311610f5357829003601f168201915b5050505050905061081b565b600080600080610f8c8686610fe5565b925092509250610f9c8282611032565b5090949350505050565b60606000610fb3836110ef565b604080516020808252818301909252919250600091906020820181803683375050509182525060208101929092525090565b6000806000835160410361101f5760208401516040850151606086015160001a61101188828585611117565b95509550955050505061102b565b50508151600091506002905b9250925092565b6000826003811115611046576110466118fd565b0361104f575050565b6001826003811115611063576110636118fd565b036110815760405163f645eedf60e01b815260040160405180910390fd5b6002826003811115611095576110956118fd565b036110b65760405163fce698f760e01b815260048101829052602401610b4e565b60038260038111156110ca576110ca6118fd565b036110eb576040516335e2f38360e21b815260048101829052602401610b4e565b5050565b600060ff8216601f81111561081b57604051632cd44ac360e21b815260040160405180910390fd5b600080807f7fffffffffffffffffffffffffffffff5d576e7357a4501ddfe92f46681b20a084111561115257506000915060039050826111dc565b604080516000808252602082018084528a905260ff891692820192909252606081018790526080810186905260019060a0016020604051602081039080840390855afa1580156111a6573d6000803e3d6000fd5b5050604051601f1901519150506001600160a01b0381166111d2575060009250600191508290506111dc565b9250600091508190505b9450945094915050565b634e487b7160e01b600052604160045260246000fd5b604051608081016001600160401b038111828210171561121e5761121e6111e6565b60405290565b604051606081016001600160401b038111828210171561121e5761121e6111e6565b604051601f8201601f191681016001600160401b038111828210171561126e5761126e6111e6565b604052919050565b80356001600160a01b0381168114610bd057600080fd5b6000806001600160401b038411156112a7576112a76111e6565b50601f8301601f19166020016112bc81611246565b9150508281528383830111156112d157600080fd5b828260208301376000602084830101529392505050565b600082601f8301126112f957600080fd5b6113088383356020850161128d565b9392505050565b60006020828403121561132157600080fd5b81356001600160401b0381111561133757600080fd5b82016080818503121561134957600080fd5b6113516111fc565b61135a82611276565b815260208201356001600160401b0381111561137557600080fd5b611381868285016112e8565b60208301525060408201356001600160401b038111156113a057600080fd5b6113ac868285016112e8565b60408301525060608201356001600160401b038111156113cb57600080fd5b6113d7868285016112e8565b606083015250949350505050565b600082601f8301126113f657600080fd5b81356001600160401b0381111561140f5761140f6111e6565b8060051b61141f60208201611246565b9182526020818501810192908101908684111561143b57600080fd5b6020860192505b838310156114645761145383611276565b825260209283019290910190611442565b9695505050505050565b60006020828403121561148057600080fd5b81356001600160401b0381111561149657600080fd5b8201604081850312156114a857600080fd5b604080519081016001600160401b03811182821017156114ca576114ca6111e6565b6040526114d682611276565b815260208201356001600160401b038111156114f157600080fd5b6114fd868285016113e5565b602083015250949350505050565b60006020828403121561151d57600080fd5b81356001600160401b0381111561153357600080fd5b82016060818503121561154557600080fd5b61154d611224565b61155682611276565b815260208201356001600160401b0381111561157157600080fd5b61157d868285016113e5565b60208301525060408201356001600160401b0381111561159c57600080fd5b6115a8868285016113e5565b604083015250949350505050565b600080604083850312156115c957600080fd5b6115d283611276565b91506115e060208401611276565b90509250929050565b6000815180845260005b8181101561160f576020818501810151868301820152016115f3565b506000602082860101526020601f19601f83011685010191505092915050565b60ff60f81b8816815260e06020820152600061164e60e08301896115e9565b828103604084015261166081896115e9565b606084018890526001600160a01b038716608085015260a0840186905283810360c08501528451808252602080870193509091019060005b818110156116b6578351835260209384019390920191600101611698565b50909b9a5050505050505050505050565b6000602082840312156116d957600080fd5b61130882611276565b600060a082840312156116f457600080fd5b60405160a081016001600160401b0381118282101715611716576117166111e6565b60405290508061172583611276565b8152602083013560ff8116811461173b57600080fd5b60208201526040838101359082015260608084013590820152608092830135920191909152919050565b60008060c0838503121561177857600080fd5b82356001600160401b0381111561178e57600080fd5b8301608081860312156117a057600080fd5b6117a86111fc565b6117b182611276565b81526117bf60208301611276565b602082015260408201356001600160401b038111156117dd57600080fd5b8201601f810187136117ee57600080fd5b6117fd8782356020840161128d565b6040830152506060918201359181019190915291506115e084602085016116e2565b60006020828403121561183157600080fd5b8151801515811461130857600080fd5b60808152600061185460808301876115e9565b828103602084015261186681876115e9565b9050828103604084015261187a81866115e9565b91505060018060a01b038316606083015295945050505050565b634e487b7160e01b600052603260045260246000fd5b6000602082840312156118bc57600080fd5b5051919050565b600181811c908216806118d757607f821691505b6020821081036118f757634e487b7160e01b600052602260045260246000fd5b50919050565b634e487b7160e01b600052602160045260246000fdfe416374697661746544657669636528616464726573732070726f647563742c61646472657373206465766963652c6279746573206465766963655369676e61747572652c75696e7432353620646576696365446561646c696e652c75696e7432353620646561646c696e6529a26469706673582212205aae321411c9f4bb762f3838fd491f112fc34ff33add75c3b487b884160409fb64736f6c634300081a0033","linkReferences":{}},"methodIdentifiers":{"ACTIVATE_DEVICE_TYPEHASH()":"b063cb54","activateDevice((address,address,bytes,uint256),(address,uint8,bytes32,bytes32,uint256))":"bb189de1","createActivatedDevices((address,address[],address[]))":"4be60db3","createDevices((address,address[]))":"3a7eece8","createProduct((address,string,string,string))":"002ca198","eip712Domain()":"84b0196e","getDeviceTokenId(address,address)":"5d25e632","getDomainSeparator()":"ed24911d","getVendorByProduct(address)":"904b55a5","owner()":"8da5cb5b","renounceOwnership()":"715018a6","transferOwnership(address)":"f2fde38b"},"id":2}